{
  "_format": "hh-sol-artifact-1",
  "contractName": "SupplyChain",
  "sourceName": "contracts/supplychain.sol",
  "abi": [
    {
      "inputs": [
        {
          "internalType": "address",
          "name": "_tokenAddress",
          "type": "address"
        }
      ],
      "stateMutability": "nonpayable",
      "type": "constructor"
    },
    {
      "inputs": [],
      "name": "admin",
      "outputs": [
        {
          "internalType": "address",
          "name": "",
          "type": "address"
        }
      ],
      "stateMutability": "view",
      "type": "function"
    },
    {
      "inputs": [
        {
          "internalType": "uint256",
          "name": "_productId",
          "type": "uint256"
        }
      ],
      "name": "completeDelivery",
      "outputs": [],
      "stateMutability": "nonpayable",
      "type": "function"
    },
    {
      "inputs": [
        {
          "internalType": "uint256",
          "name": "_productId",
          "type": "uint256"
        }
      ],
      "name": "completeProduct",
      "outputs": [],
      "stateMutability": "nonpayable",
      "type": "function"
    },
    {
      "inputs": [
        {
          "internalType": "string",
          "name": "_name",
          "type": "string"
        },
        {
          "internalType": "uint256",
          "name": "_price",
          "type": "uint256"
        }
      ],
      "name": "createProduct",
      "outputs": [],
      "stateMutability": "nonpayable",
      "type": "function"
    },
    {
      "inputs": [
        {
          "internalType": "uint256",
          "name": "_productId",
          "type": "uint256"
        }
      ],
      "name": "getShipmentHistory",
      "outputs": [
        {
          "internalType": "address[]",
          "name": "",
          "type": "address[]"
        }
      ],
      "stateMutability": "view",
      "type": "function"
    },
    {
      "inputs": [
        {
          "internalType": "uint256",
          "name": "_productId",
          "type": "uint256"
        }
      ],
      "name": "makePayment",
      "outputs": [],
      "stateMutability": "nonpayable",
      "type": "function"
    },
    {
      "inputs": [],
      "name": "productCount",
      "outputs": [
        {
          "internalType": "uint256",
          "name": "",
          "type": "uint256"
        }
      ],
      "stateMutability": "view",
      "type": "function"
    },
    {
      "inputs": [
        {
          "internalType": "uint256",
          "name": "",
          "type": "uint256"
        }
      ],
      "name": "products",
      "outputs": [
        {
          "internalType": "address",
          "name": "creator",
          "type": "address"
        },
        {
          "internalType": "string",
          "name": "name",
          "type": "string"
        },
        {
          "internalType": "uint256",
          "name": "creationTimestamp",
          "type": "uint256"
        },
        {
          "internalType": "enum SupplyChain.State",
          "name": "currentState",
          "type": "uint8"
        },
        {
          "internalType": "address",
          "name": "currentOwner",
          "type": "address"
        },
        {
          "internalType": "uint256",
          "name": "price",
          "type": "uint256"
        }
      ],
      "stateMutability": "view",
      "type": "function"
    },
    {
      "inputs": [],
      "name": "token",
      "outputs": [
        {
          "internalType": "contract IERC20",
          "name": "",
          "type": "address"
        }
      ],
      "stateMutability": "view",
      "type": "function"
    },
    {
      "inputs": [
        {
          "internalType": "uint256",
          "name": "_productId",
          "type": "uint256"
        },
        {
          "internalType": "address",
          "name": "_newOwner",
          "type": "address"
        }
      ],
      "name": "transferProductOwnership",
      "outputs": [],
      "stateMutability": "nonpayable",
      "type": "function"
    },
    {
      "inputs": [
        {
          "internalType": "uint256",
          "name": "_productId",
          "type": "uint256"
        },
        {
          "internalType": "uint256",
          "name": "_newPrice",
          "type": "uint256"
        }
      ],
      "name": "updateProductPrice",
      "outputs": [],
      "stateMutability": "nonpayable",
      "type": "function"
    }
  ],
  "bytecode": "0x60806040523480156200001157600080fd5b5060405162001c7c38038062001c7c83398181016040528101906200003791906200012a565b80600260006101000a81548173ffffffffffffffffffffffffffffffffffffffff021916908373ffffffffffffffffffffffffffffffffffffffff16021790555033600360006101000a81548173ffffffffffffffffffffffffffffffffffffffff021916908373ffffffffffffffffffffffffffffffffffffffff160217905550506200015c565b600080fd5b600073ffffffffffffffffffffffffffffffffffffffff82169050919050565b6000620000f282620000c5565b9050919050565b6200010481620000e5565b81146200011057600080fd5b50565b6000815190506200012481620000f9565b92915050565b600060208284031215620001435762000142620000c0565b5b6000620001538482850162000113565b91505092915050565b611b10806200016c6000396000f3fe608060405234801561001057600080fd5b50600436106100a95760003560e01c806386b0e8121161007157806386b0e812146101675780639c3bddb214610183578063e0f6ef871461019f578063e9300c6c146101bd578063f851a440146101d9578063fc0c546a146101f7576100a9565b806345806352146100ae5780635114cb52146100ca578063631c6ffe146100e65780637acc0b201461011657806382c9804a1461014b575b600080fd5b6100c860048036038101906100c39190610eac565b610215565b005b6100e460048036038101906100df9190610eac565b610355565b005b61010060048036038101906100fb9190610eac565b6105a9565b60405161010d9190610fc9565b60405180910390f35b610130600480360381019061012b9190610eac565b61064c565b60405161014296959493929190611110565b60405180910390f35b61016560048036038101906101609190610eac565b61075d565b005b610181600480360381019061017c91906111a4565b61089d565b005b61019d600480360381019061019891906111e4565b610a10565b005b6101a7610abe565b6040516101b49190611224565b60405180910390f35b6101d760048036038101906101d29190611374565b610ac4565b005b6101e1610cb8565b6040516101ee91906113d0565b60405180910390f35b6101ff610cde565b60405161020c919061144a565b60405180910390f35b80600280600381111561022b5761022a611099565b5b60008084815260200190815260200160002060030160009054906101000a900460ff1660038111156102605761025f611099565b5b146102a0576040517f08c379a0000000000000000000000000000000000000000000000000000000008152600401610297906114d7565b60405180910390fd5b8260008082815260200190815260200160002060030160019054906101000a900473ffffffffffffffffffffffffffffffffffffffff1673ffffffffffffffffffffffffffffffffffffffff163373ffffffffffffffffffffffffffffffffffffffff1614610344576040517f08c379a000000000000000000000000000000000000000000000000000000000815260040161033b90611569565b60405180910390fd5b61034f846003610d04565b50505050565b80600080600381111561036b5761036a611099565b5b60008084815260200190815260200160002060030160009054906101000a900460ff1660038111156103a05761039f611099565b5b146103e0576040517f08c379a00000000000000000000000000000000000000000000000000000000081526004016103d7906114d7565b60405180910390fd5b60008060008581526020019081526020016000209050600073ffffffffffffffffffffffffffffffffffffffff168160030160019054906101000a900473ffffffffffffffffffffffffffffffffffffffff1673ffffffffffffffffffffffffffffffffffffffff1603610489576040517f08c379a0000000000000000000000000000000000000000000000000000000008152600401610480906115d5565b60405180910390fd5b600081600401549050600260009054906101000a900473ffffffffffffffffffffffffffffffffffffffff1673ffffffffffffffffffffffffffffffffffffffff166323b872dd338460000160009054906101000a900473ffffffffffffffffffffffffffffffffffffffff16846040518463ffffffff1660e01b8152600401610515939291906115f5565b6020604051808303816000875af1158015610534573d6000803e3d6000fd5b505050506040513d601f19601f820116820180604052508101906105589190611664565b610597576040517f08c379a000000000000000000000000000000000000000000000000000000000815260040161058e906116dd565b60405180910390fd5b6105a2856001610d04565b5050505050565b606060008083815260200190815260200160002060050180548060200260200160405190810160405280929190818152602001828054801561064057602002820191906000526020600020905b8160009054906101000a900473ffffffffffffffffffffffffffffffffffffffff1673ffffffffffffffffffffffffffffffffffffffff16815260200190600101908083116105f6575b50505050509050919050565b60006020528060005260406000206000915090508060000160009054906101000a900473ffffffffffffffffffffffffffffffffffffffff16908060010180546106959061172c565b80601f01602080910402602001604051908101604052809291908181526020018280546106c19061172c565b801561070e5780601f106106e35761010080835404028352916020019161070e565b820191906000526020600020905b8154815290600101906020018083116106f157829003601f168201915b5050505050908060020154908060030160009054906101000a900460ff16908060030160019054906101000a900473ffffffffffffffffffffffffffffffffffffffff16908060040154905086565b80600180600381111561077357610772611099565b5b60008084815260200190815260200160002060030160009054906101000a900460ff1660038111156107a8576107a7611099565b5b146107e8576040517f08c379a00000000000000000000000000000000000000000000000000000000081526004016107df906114d7565b60405180910390fd5b8260008082815260200190815260200160002060030160019054906101000a900473ffffffffffffffffffffffffffffffffffffffff1673ffffffffffffffffffffffffffffffffffffffff163373ffffffffffffffffffffffffffffffffffffffff161461088c576040517f08c379a000000000000000000000000000000000000000000000000000000000815260040161088390611569565b60405180910390fd5b610897846002610d04565b50505050565b8160008082815260200190815260200160002060030160019054906101000a900473ffffffffffffffffffffffffffffffffffffffff1673ffffffffffffffffffffffffffffffffffffffff163373ffffffffffffffffffffffffffffffffffffffff1614610941576040517f08c379a000000000000000000000000000000000000000000000000000000000815260040161093890611569565b60405180910390fd5b8160008085815260200190815260200160002060030160016101000a81548173ffffffffffffffffffffffffffffffffffffffff021916908373ffffffffffffffffffffffffffffffffffffffff160217905550600080848152602001908152602001600020600501829080600181540180825580915050600190039060005260206000200160009091909190916101000a81548173ffffffffffffffffffffffffffffffffffffffff021916908373ffffffffffffffffffffffffffffffffffffffff160217905550505050565b600360009054906101000a900473ffffffffffffffffffffffffffffffffffffffff1673ffffffffffffffffffffffffffffffffffffffff163373ffffffffffffffffffffffffffffffffffffffff1614610aa0576040517f08c379a0000000000000000000000000000000000000000000000000000000008152600401610a97906117cf565b60405180910390fd5b80600080848152602001908152602001600020600401819055505050565b60015481565b60016000815480929190610ad79061181e565b91905055506040518060e001604052803373ffffffffffffffffffffffffffffffffffffffff16815260200183815260200142815260200160006003811115610b2357610b22611099565b5b8152602001600073ffffffffffffffffffffffffffffffffffffffff168152602001828152602001600067ffffffffffffffff811115610b6657610b65611249565b5b604051908082528060200260200182016040528015610b945781602001602082028036833780820191505090505b50815250600080600154815260200190815260200160002060008201518160000160006101000a81548173ffffffffffffffffffffffffffffffffffffffff021916908373ffffffffffffffffffffffffffffffffffffffff1602179055506020820151816001019081610c089190611a08565b506040820151816002015560608201518160030160006101000a81548160ff02191690836003811115610c3e57610c3d611099565b5b021790555060808201518160030160016101000a81548173ffffffffffffffffffffffffffffffffffffffff021916908373ffffffffffffffffffffffffffffffffffffffff16021790555060a0820151816004015560c0820151816005019080519060200190610cb0929190610dbb565b509050505050565b600360009054906101000a900473ffffffffffffffffffffffffffffffffffffffff1681565b600260009054906101000a900473ffffffffffffffffffffffffffffffffffffffff1681565b8060008084815260200190815260200160002060030160006101000a81548160ff02191690836003811115610d3c57610d3b611099565b5b0217905550600080838152602001908152602001600020600501339080600181540180825580915050600190039060005260206000200160009091909190916101000a81548173ffffffffffffffffffffffffffffffffffffffff021916908373ffffffffffffffffffffffffffffffffffffffff1602179055505050565b828054828255906000526020600020908101928215610e34579160200282015b82811115610e335782518260006101000a81548173ffffffffffffffffffffffffffffffffffffffff021916908373ffffffffffffffffffffffffffffffffffffffff16021790555091602001919060010190610ddb565b5b509050610e419190610e45565b5090565b5b80821115610e5e576000816000905550600101610e46565b5090565b6000604051905090565b600080fd5b600080fd5b6000819050919050565b610e8981610e76565b8114610e9457600080fd5b50565b600081359050610ea681610e80565b92915050565b600060208284031215610ec257610ec1610e6c565b5b6000610ed084828501610e97565b91505092915050565b600081519050919050565b600082825260208201905092915050565b6000819050602082019050919050565b600073ffffffffffffffffffffffffffffffffffffffff82169050919050565b6000610f3082610f05565b9050919050565b610f4081610f25565b82525050565b6000610f528383610f37565b60208301905092915050565b6000602082019050919050565b6000610f7682610ed9565b610f808185610ee4565b9350610f8b83610ef5565b8060005b83811015610fbc578151610fa38882610f46565b9750610fae83610f5e565b925050600181019050610f8f565b5085935050505092915050565b60006020820190508181036000830152610fe38184610f6b565b905092915050565b610ff481610f25565b82525050565b600081519050919050565b600082825260208201905092915050565b60005b83811015611034578082015181840152602081019050611019565b60008484015250505050565b6000601f19601f8301169050919050565b600061105c82610ffa565b6110668185611005565b9350611076818560208601611016565b61107f81611040565b840191505092915050565b61109381610e76565b82525050565b7f4e487b7100000000000000000000000000000000000000000000000000000000600052602160045260246000fd5b600481106110d9576110d8611099565b5b50565b60008190506110ea826110c8565b919050565b60006110fa826110dc565b9050919050565b61110a816110ef565b82525050565b600060c0820190506111256000830189610feb565b81810360208301526111378188611051565b9050611146604083018761108a565b6111536060830186611101565b6111606080830185610feb565b61116d60a083018461108a565b979650505050505050565b61118181610f25565b811461118c57600080fd5b50565b60008135905061119e81611178565b92915050565b600080604083850312156111bb576111ba610e6c565b5b60006111c985828601610e97565b92505060206111da8582860161118f565b9150509250929050565b600080604083850312156111fb576111fa610e6c565b5b600061120985828601610e97565b925050602061121a85828601610e97565b9150509250929050565b6000602082019050611239600083018461108a565b92915050565b600080fd5b600080fd5b7f4e487b7100000000000000000000000000000000000000000000000000000000600052604160045260246000fd5b61128182611040565b810181811067ffffffffffffffff821117156112a05761129f611249565b5b80604052505050565b60006112b3610e62565b90506112bf8282611278565b919050565b600067ffffffffffffffff8211156112df576112de611249565b5b6112e882611040565b9050602081019050919050565b82818337600083830152505050565b6000611317611312846112c4565b6112a9565b90508281526020810184848401111561133357611332611244565b5b61133e8482856112f5565b509392505050565b600082601f83011261135b5761135a61123f565b5b813561136b848260208601611304565b91505092915050565b6000806040838503121561138b5761138a610e6c565b5b600083013567ffffffffffffffff8111156113a9576113a8610e71565b5b6113b585828601611346565b92505060206113c685828601610e97565b9150509250929050565b60006020820190506113e56000830184610feb565b92915050565b6000819050919050565b600061141061140b61140684610f05565b6113eb565b610f05565b9050919050565b6000611422826113f5565b9050919050565b600061143482611417565b9050919050565b61144481611429565b82525050565b600060208201905061145f600083018461143b565b92915050565b7f50726f64756374206973206e6f7420696e20746865207265717569726564207360008201527f7461746500000000000000000000000000000000000000000000000000000000602082015250565b60006114c1602483611005565b91506114cc82611465565b604082019050919050565b600060208201905081810360008301526114f0816114b4565b9050919050565b7f4f6e6c79207468652063757272656e74206f776e65722063616e20706572666f60008201527f726d207468697320616374696f6e000000000000000000000000000000000000602082015250565b6000611553602e83611005565b915061155e826114f7565b604082019050919050565b6000602082019050818103600083015261158281611546565b9050919050565b7f50726f64756374206f776e6572206d7573742062652073657400000000000000600082015250565b60006115bf601983611005565b91506115ca82611589565b602082019050919050565b600060208201905081810360008301526115ee816115b2565b9050919050565b600060608201905061160a6000830186610feb565b6116176020830185610feb565b611624604083018461108a565b949350505050565b60008115159050919050565b6116418161162c565b811461164c57600080fd5b50565b60008151905061165e81611638565b92915050565b60006020828403121561167a57611679610e6c565b5b60006116888482850161164f565b91505092915050565b7f5061796d656e74206661696c6564000000000000000000000000000000000000600082015250565b60006116c7600e83611005565b91506116d282611691565b602082019050919050565b600060208201905081810360008301526116f6816116ba565b9050919050565b7f4e487b7100000000000000000000000000000000000000000000000000000000600052602260045260246000fd5b6000600282049050600182168061174457607f821691505b602082108103611757576117566116fd565b5b50919050565b7f4f6e6c79207468652061646d696e2063616e20706572666f726d20746869732060008201527f616374696f6e0000000000000000000000000000000000000000000000000000602082015250565b60006117b9602683611005565b91506117c48261175d565b604082019050919050565b600060208201905081810360008301526117e8816117ac565b9050919050565b7f4e487b7100000000000000000000000000000000000000000000000000000000600052601160045260246000fd5b600061182982610e76565b91507fffffffffffffffffffffffffffffffffffffffffffffffffffffffffffffffff820361185b5761185a6117ef565b5b600182019050919050565b60008190508160005260206000209050919050565b60006020601f8301049050919050565b600082821b905092915050565b6000600883026118c87fffffffffffffffffffffffffffffffffffffffffffffffffffffffffffffffff8261188b565b6118d2868361188b565b95508019841693508086168417925050509392505050565b60006119056119006118fb84610e76565b6113eb565b610e76565b9050919050565b6000819050919050565b61191f836118ea565b61193361192b8261190c565b848454611898565b825550505050565b600090565b61194861193b565b611953818484611916565b505050565b5b818110156119775761196c600082611940565b600181019050611959565b5050565b601f8211156119bc5761198d81611866565b6119968461187b565b810160208510156119a5578190505b6119b96119b18561187b565b830182611958565b50505b505050565b600082821c905092915050565b60006119df600019846008026119c1565b1980831691505092915050565b60006119f883836119ce565b9150826002028217905092915050565b611a1182610ffa565b67ffffffffffffffff811115611a2a57611a29611249565b5b611a34825461172c565b611a3f82828561197b565b600060209050601f831160018114611a725760008415611a60578287015190505b611a6a85826119ec565b865550611ad2565b601f198416611a8086611866565b60005b82811015611aa857848901518255600182019150602085019450602081019050611a83565b86831015611ac55784890151611ac1601f8916826119ce565b8355505b6001600288020188555050505b50505050505056fea26469706673582212207dd382dc442aa2a39595a410d0c1089f2dd662cffb775c49c1ccf3d370440b3864736f6c63430008130033",
  "linkReferences": {},
  "deployedLinkReferences": {}
}